:03001700010A00DB
:1000AA00E4F582F583AC06AD07D3ED9400EC940039
:1000BA0040257A007B05900040E582158270021582
:1000CA0083E582458370F2EB1B70011AEB4A70E6F6
:0700DA00ED1D70D51C80D262
:0100E10022FC
:10000300750814758912758C4C758AD0D2AFD28E4F
:04001300D2AB80FEEE
:03001B000200E2FE
:1000E200C0E0C0D0758D4C758BD0050AE50AB414FA
:0B00F20005750A00B290D0D0D0E032BB
:0300000002001EDD
:0C001E00787FE4F6D8FD75810A020065C9
:10002A00020003E493A3F8E493A34003F68001F2E9
:10003A0008DFF48029E493A3F85407240CC8C333D7
:10004A00C4540F4420C8834004F456800146F6DFA6
:10005A00E4800B0102040810204080900017E47E1F
:10006A00019360BCA3FF543F30E509541FFEE4939B
:10007A00A360010ECF54C025E060A840B8E493A362
:10008A00FAE493A3F8E493A3C8C582C8CAC583CA8D
:10009A00F0A3C8C582C8CAC583CADFE9DEE780BE45
:01001A0000E5
:00000001FF
