:1000790044657369676E656420427900D2DACEA857
:10008900B5E7D7D3005757572E45564D43552E4EF2
:1000990045540051513A31313634363031343835DE
:0100A9000056
:10004100E4F582F583AC06AD07D3ED9400EC9400A2
:1000510040257A007B05900080E5821582700215AB
:1000610083E582458370F2EB1B70011AEB4A70E65F
:07007100ED1D70D51C80D2CB
:010078002265
:0E010200C2B5C2B71201108E90120110D2B712
:06011000E47FDC00DFFDCE
:0101160022C6
:0E011700AE07D2B6C2B4120102C2B702011086
:0E012500AE07D2B6D2B4120102C2B702011068
:1000AA00D2B6D2B4C2B5C2B71200E9FF6013F59056
:1000BA0012010BC2B7120110740129F9E43AFA804D
:0200CA00E7222B
:1000CC00C2B77F301201177F0C1201177F0112018A
:0D00DC00177F061201177F0A7E0002004107
:100003001200CC7F811201177BFF7A0079791200ED
:10001300AA7F921201177A0079851200AA7F8912AA
:1000230001177A00798E1200AA7F991201177A00BC
:0E003300799C1200AA7F647E0012004180FEBC
:03000000020133C7
:0C013300787FE4F6D8FD75810702000318
:1000E900BB010689828A83E0225002E722BBFE0215
:0900F900E32289828A83E4932248
:00000001FF
