:10000300E4F582F583AC06AD07D3ED9400EC9400E0
:1000130040257A007B05900040E582158270021529
:1000230083E582458370F2EB1B70011AEB4A70E69D
:07003300ED1D70D51C80D209
:01003A0022A3
:10003E00E4F9D2907F037E00120003C2907F251256
:06004E00000309B91EECDD
:010054002289
:10005500E4F9D2907F027E00120003C2907F26123F
:06006500000309B928ECBC
:01006B002272
:10006C00E4F9D2907F047E00120003C2907F241228
:06007C00000309B928ECA5
:01008200225B
:05008F0012006C80FB73
:0300000002008378
:0C008300787FE4F6D8FD75810702008F3D
:00000001FF
