:1005B800021E000002180000021A0000021C0000BF
:1005C8000E0A74313D2020732C74323D20207300B4
:1005D800112074333D2020732C746F74616C3D209E
:1005E8002020000832F8FCF4F6F2F3F1F9083A8F0B
:0E05F800CF4F6F2F3F1F9F0131000208000000
:0F07B000C2B08FA01207CED2B21207CEC2B222B1
:0F07BF00D2B08FA01207CED2B21207CEC2B22292
:100003008B428A438944D2B0C2B2AB42AA43A944C9
:100013001204FAFF601CF5A01207CED2B21207CE6B
:10002300C2B21207CE74012544F544E43543F543C7
:0300330080D82250
:10077800C2B1C2B27F381207B07F0C1207B07F0631
:0F0788001207B07F011207B07F0A7E00020580C2
:10039300120778AE18AF197C007D0A120513EF24FB
:1003A30030F50DAE18AF197C007D0A120513ED244C
:1003B30030F50EAE1AAF1B7C007D0A120513EF2435
:1003C30030F514AE1AAF1B7C007D0A120513ED2421
:1003D30030F515AE1CAF1D7C007D0A120513EF240A
:1003E30030F523AE1CAF1D7C007D0A120513ED24EE
:1003F30030F524E519251BFFE518351AFEE51D2FF9
:10040300FBE51C3EFA7C007D64AF03FE120513EF8F
:100413002430F52D7C007D64AF03AE021205137EFC
:10042300007F0ACFCDCFCECCCE120513EF2430F50B
:100433002EE519251BFFE518351AFEE51D2FFFE5EF
:100443001C3EFE7C007D0A120513ED2430F52F7F40
:10045300801207B07B007A00790A1200037FC01272
:0B04630007B07B007A00792002000344
:0406D3007D097F011D
:0406D7008F428D437E
:1006DB00E4F545E545C395425027E4F544743A25C6
:1006EB0044F8E6FF74322544F8E65FF580AF437EAD
:1006FB000012079B0544E544C3940840E005458080
:01070B00D21B
:01070C0022CA
:0B0607007FF47E011205807D137F0A46
:040612008F428D4343
:10061600E4F545E545C39542502AE4F544C374071D
:100626009544FF243AF8E6FE74322FF8E65EF5802C
:10063600AF437E0012079B0544E544C3940840DDA2
:04064600054580CF17
:01064A00228D
:0B064B007F327E001205807D0F7F21B2
:040656008F428D43FF
:10065A00E4F545E545C39542502AE4F544C37407D9
:10066A0095442432F8E6FF743A2544F8E65FF580AB
:10067A00AF437E0012079B0544E544C3940840DD5E
:04068A00054580CFD3
:01068E002249
:0B068F007F327E001205807D0F7F236C
:04069A008F428D43BB
:10069E00E4F545E545C39542502AE4F544C3740795
:1006AE009544243AF8E6FF74322544F8E65FF58067
:1006BE00AF437E0012079B0544E544C3940840DD1A
:0406CE00054580CF8F
:0106D2002205
:1007470075D90575DA4C75DB4C75F9F875E9F875E7
:10075700FAF975EA2575FBF975EB25D2AFE4F5973C
:10076700758E80758922758C85758A85D28CD2DEC7
:01077700225F
:03003B0002070DAC
:10070D00C0E0C0D030DF2CD29475E9FA75F9F8E568
:10071D00082427F5EA75FAF9E5092427F5EB75FBA9
:10072D00F90531E531B4320B753100051FE51F7048
:0A073D0002051EC2DFD0D0D0E0326A
:0400360075099C228A
:0407D50075099122EF
:040797007F057E005C
:10079B007D6EEF1FAA0670011E4A6008AC051DECAA
:0407AB0060F080F882
:0107AF002227
:10056800120036C2967F647E00120580D29612056C
:0805780080C296120580D296A4
:10058000E4F582F583AC06AD07D3ED9400EC94005E
:1005900040257A007B05900080E582158270021567
:1005A00083E582458370F2EB1B70011AEB4A70E61B
:0705B000ED1D70D51C80D287
:0105B7002221
:0607CE00E47FDC00DFFD0A
:0107D4002202
:10003E00C2967F647E0012057BC296120580D29610
:10004E00120747D290D291D2B3D2B4D2B51207D5FD
:10005E007D147F1E1206D77D097F731206D71206F6
:10006E004B7F327E0012058020B50612079730B501
:10007E00051206D380F21206077F327E001205802B
:10008E0030B40612079720B4097D0F7F0112069A2D
:10009E0080EE7D0F7F0D12069A7F327E0012058054
:1000AE002090061207973090051206D380F21205A3
:1000BE00687D137F1E1206127F327E001205807D30
:1000CE000F7F231206567F327E001205807D097F38
:1000DE00441206D77F327E001205807D0F7F2212DA
:1000EE0006567F327E0012058020B5061207973025
:1000FE00B5051206D380F27D097F111206D71206BE
:10010E008F7F327E00120580209106120797309164
:10011E00097D0F7F011206D780EE7D0F7F05120637
:10012E005612056B1205791207D5851E18851F19F3
:10013E001203937FF47E011205807D137F781206E1
:10014E00127F327E001205807D0F7F0512069A7F88
:10015E00327E001205807D0F7F2112069A7F327E3D
:10016E00001205807D097F641206D712064B7F327E
:10017E007E0012058020B50612079730B5051206CF
:10018E00D380F21206077F327E0012058030B4064D
:10019E0012079720B4097D0F7F0112069A80EE7D1B
:1001AE000F7F0812069A7F327E001205802090067D
:1001BE001207973090051206D380F21205687D1350
:1001CE007F1E1206127F327E001205807D0F7F2267
:1001DE001206567F327E001205807D097F37120689
:1001EE00D77F327E001205807D0F7F221206567F4A
:1001FE00327E0012058020B50612079730B5051223
:10020E0006D380F27D097F0A1206D712068F7F323F
:10021E007E001205802091061207973091097D0FFE
:10022E007F011206D780EE7D0F7F0712065612054C
:10023E006B1205791207D5C3E51F9519F51BE51E3F
:10024E009518F51A1203937FF47E011205807D1323
:10025E007F321206127F327E001205807D0F7F22C2
:10026E0012069A7F327E001205807D097F6E12067D
:10027E00D77F327E001205807D0F7F2112069A7F76
:10028E00327E0012058020B30612079730B3051296
:10029E0006D380F21206077F327E0012058030B43C
:1002AE000612079720B4097D0F7F0112065680EEC5
:1002BE007D0F7F031206567F327E0012058020903E
:1002CE00061207973090051206D380F212056812B7
:1002DE0006527F327E001205807D097F171206D7E7
:1002EE0012064B7F327E0012058020B5061207974C
:1002FE0030B5051206D380F27D097F051206D77F31
:10030E00327E001205807D0F7F2612069A7F327E86
:10031E00001205802091061207973091097D0F7FFC
:10032E00011206D780EE7D0F7F0A1206567F327EAF
:10033E00001205807D0F7F0112069A12056B1205C1
:10034E00791207D5C3E51F951BFFE51E951AFEC34F
:10035E00EF9519F51DEE9518F51C7FF47E0112052B
:10036E00807D137F3212061212039312056BC29612
:10037E00120580D2967FE87E03120580C296120582
:05038E0080D29680FE04
:0300000002046E89
:0C046E00787FE4F6D8FD7581450204B5E6
:1004FA00BB010689828A83E0225002E722BBFE0200
:09050A00E32289828A83E4932232
:10051300BC000BBE0029EF8DF084FFADF022E4CCCC
:10052300F875F008EF2FFFEE33FEEC33FCEE9DEC95
:10053300984005FCEE9DFE0FD5F0E9E4CEFD22EDDB
:10054300F8F5F0EE8420D21CFEADF075F008EF2F25
:10055300FFED33FD4007985006D5F0F222C398FD16
:050563000FD5F0EA22B3
:10047A0002003EE493A3F8E493A34003F68001F25A
:10048A0008DFF48029E493A3F85407240CC8C33383
:10049A00C4540F4420C8834004F456800146F6DF52
:1004AA00E4800B01020408102040809005B8E47E25
:1004BA00019360BCA3FF543F30E509541FFEE49347
:1004CA00A360010ECF54C025E060A840B8E493A30E
:1004DA00FAE493A3F8E493A3C8C582C8CAC583CA39
:1004EA00F0A3C8C582C8CAC583CADFE9DEE780BEF1
:0106060000F3
:00000001FF
