:10021000021E000002180000021A0000021C00006A
:100220000E0A74313D2020732C74323D202073005F
:10023000112074333D2020732C746F74616C3D2049
:100240002020000832F8FCF4F6F2F3F1F9083A8FB6
:0E025000CF4F6F2F3F1F9F01310002080000AB
:0F040C00C2B08FA012042AD2B212042AC2B222A6
:0F041B00D2B08FA012042AD2B212042AC2B22287
:100299008B428A438944D2B0C2B2AB42AA43A94431
:1002A9001201A2FF601CF5A012042AD2B212042A7C
:1002B900C2B212042A74012544F544E43543F543D6
:0302C90080D822B8
:1003B500C2B1C2B27F3812040C7F0C12040C7F0646
:0F03C50012040C7F0112040C7F0A7E0002000359
:10003E001203B5AE18AF197C007D0A1201BBEF2476
:10004E0030F50DAE18AF197C007D0A1201BBED2400
:10005E0030F50EAE1AAF1B7C007D0A1201BBEF24E9
:10006E0030F514AE1AAF1B7C007D0A1201BBED24D5
:10007E0030F515AE1CAF1D7C007D0A1201BBEF24BE
:10008E0030F523AE1CAF1D7C007D0A1201BBED24A2
:10009E0030F524E519251BCFE518351ACF251DFBA4
:1000AE00EF351CFA7C007D64AF03FE1201BBEF241A
:1000BE0030F52D7C007D64AF03AE021201BB7E00D5
:1000CE007F0ACFCDCFCECCCE1201BBEF2430F52E92
:1000DE00E519251BCFE518351ACF251DCF351CFE8A
:1000EE007C007D0A1201BBED2430F52F7F801204B7
:1000FE000C7B007A00790A1202997FC012040C7BE5
:08010E00007A00792002029939
:02038A008F4E94
:10038C00E4F550E550C3954E501EE4F54F743A25F4
:10039C004FF8E6FF7432254F1203D4054FE54FC3D7
:0803AC00940840E9055080DBD4
:0103B4002226
:0202CC008F455C
:1002CE00E4F547E547C395455024E4F546C3740865
:1002DE009546FF243AF8E6FE74322FF8E65E1203D6
:0E02EE00D70546E546C3940840E3054780D592
:0102FC0022DF
:02032E008F48F6
:10033000E4F54AE54AC395485021E4F549C37408F9
:1003400095492432F8E6FF743A25491203D4054949
:0B035000E549C3940840E6054A80D848
:01035B00227F
:02035C008F4BC5
:10035E00E4F54DE54DC3954B5021E4F54CC37408BF
:10036E00954C243AF8E6FF7432254C1203D4054C12
:0B037E00E54CC3940840E6054D80D814
:010389002251
:1002FD0075D90575DA4C75DB4C75F9F875E9F87536
:10030D00FAF975EA2575FBF975EB25D2AFE4F5978A
:10031D00758E80758922758C85758A85D28CD2DE15
:01032D0022AD
:03003B0002025F5F
:10025F00C0E0C0D030DF2CD29475E9FA75F9F8E51B
:10026F00082427F5EA75FAF9E5092427F5EB75FB5C
:10027F00F90531E531B4320B753100051FE51F70FB
:0A028F0002051EC2DFD0D0D0E0321D
:040431007509962291
:0404350075098222A1
:0903D400F8E65FF5807F057E006C
:1003DD007D6EEF1FAA0670011E4A6008AC051DEC6C
:0403ED0060F080F844
:0103F10022E9
:10000300E4F582F583AC06AD07D3ED9400EC9400E0
:1000130040257A007B05900080E5821582700215E9
:1000230083E582458370F2EB1B70011AEB4A70E69D
:07003300ED1D70D51C80D209
:01003A0022A3
:06042A00E47FDC00DFFDB1
:0104300022A9
:1003F2001202FDD290D291D2B3D2B4D2B512043548
:0A04020020B4FD7F6412038A80F627
:03000000020116E4
:0C011600787FE4F6D8FD75815002015D91
:1001A200BB010689828A83E0225002E722BBFE025B
:0901B200E32289828A83E493228E
:1001BB00BC000BBE0029EF8DF084FFADF022E4CC28
:1001CB00F875F008EF2FFFEE33FEEC33FCEE9DECF1
:1001DB00984005FCEE9DFE0FD5F0E9E4CEFD22ED37
:1001EB00F8F5F0EE8420D21CFEADF075F008EF2F81
:1001FB00FFED33FD4007985006D5F0F222C398FD72
:05020B000FD5F0EA220E
:100122000203F2E493A3F8E493A34003F68001F2FE
:1001320008DFF48029E493A3F85407240CC8C333DE
:10014200C4540F4420C8834004F456800146F6DFAD
:10015200E4800B0102040810204080900210E47E2B
:10016200019360BCA3FF543F30E509541FFEE493A2
:10017200A360010ECF54C025E060A840B8E493A369
:10018200FAE493A3F8E493A3C8C582C8CAC583CA94
:10019200F0A3C8C582C8CAC583CADFE9DEE780BE4C
:01025E00009F
:00000001FF
