:1000790044657369676E656420427900D2DACEA857
:10008900B5E7D7D3005757572E45564D43552E4EF2
:1000990045540051513A31313634363031343835DE
:0100A9000056
:10004100E4F582F583AC06AD07D3ED9400EC9400A2
:1000510040257A007B05900080E5821582700215AB
:1000610083E582458370F2EB1B70011AEB4A70E65F
:07007100ED1D70D51C80D2CB
:010078002265
:0E010000C2B1C2B212010E8E9012010ED2B226
:06010E00E47FDC00DFFDD0
:0101140022C8
:0C011500AE07C2B0120100C2B202010E1F
:0C012100AE07D2B0120100C2B202010E03
:1000AA00D2B0C2B1C2B21200E7FF6013F5901201DA
:1000BA0009C2B212010E740129F9E43AFA80E72260
:1000CA00C2B27F301201157F0C1201157F01120195
:0D00DA00157F061201157F0A7E000200410D
:100003001200CA7F811201157BFF7A0079791200F1
:10001300AA7F921201157A0079851200AA7F8912AC
:1000230001157A00798E1200AA7F991201157A00C0
:0E003300799C1200AA7F647E0012004180FEBC
:0300000002012DCD
:0C012D00787FE4F6D8FD7581070200031E
:1000E700BB010689828A83E0225002E722BBFE0217
:0900F700E32289828A83E493224A
:00000001FF
