:1005BA00021E000002180000021A0000021C0000BD
:1005CA000E0A74313D2020732C74323D20207300B2
:1005DA00112074333D2020732C746F74616C3D209C
:1005EA002020000832F8FCF4F6F2F3F1F9083A8F09
:0E05FA00CF4F6F2F3F1F9F01310002080000FE
:0F07B200C2B08FA01207D0D2B21207D0C2B222AB
:0F07C100D2B08FA01207D0D2B21207D0C2B2228C
:100003008B428A438944D2B0C2B2AB42AA43A944C9
:100013001204FCFF601CF5A01207D0D2B21207D065
:10002300C2B21207D074012544F544E43543F543C5
:0300330080D82250
:10077A00C2B1C2B27F381207B27F0C1207B27F062B
:0F078A001207B27F011207B27F0A7E00020582BA
:1003950012077AAE18AF197C007D0A120515EF24F5
:1003A50030F50DAE18AF197C007D0A120515ED2448
:1003B50030F50EAE1AAF1B7C007D0A120515EF2431
:1003C50030F514AE1AAF1B7C007D0A120515ED241D
:1003D50030F515AE1CAF1D7C007D0A120515EF2406
:1003E50030F523AE1CAF1D7C007D0A120515ED24EA
:1003F50030F524E519251BFFE518351AFEE51D2FF7
:10040500FBE51C3EFA7C007D64AF03FE120515EF8B
:100415002430F52D7C007D64AF03AE021205157EF8
:10042500007F0ACFCDCFCECCCE120515EF2430F507
:100435002EE519251BFFE518351AFEE51D2FFFE5ED
:100445001C3EFE7C007D0A120515ED2430F52F7F3C
:10045500801207B27B007A00790A1200037FC0126E
:0B04650007B27B007A00792002000340
:0406D5007D077F011D
:0406D9008F428D437C
:1006DD00E4F545E545C395425027E4F544743A25C4
:1006ED0044F8E6FF74322544F8E65FF580AF437EAB
:1006FD000012079D0544E544C3940840E00545807C
:01070D00D219
:01070E0022C8
:0B0609007FF47E011205827D0C7F0A49
:040614008F428D4341
:10061800E4F545E545C39542502AE4F544C374071B
:100628009544FF243AF8E6FE74322FF8E65EF5802A
:10063800AF437E0012079D0544E544C3940840DD9E
:04064800054580CF15
:01064C00228B
:0B064D007F327E001205827D0F7F22AD
:040658008F428D43FD
:10065C00E4F545E545C39542502AE4F544C37407D7
:10066C0095442432F8E6FF743A2544F8E65FF580A9
:10067C00AF437E0012079D0544E544C3940840DD5A
:04068C00054580CFD1
:010690002247
:0B0691007F327E001205827D0F7F2368
:04069C008F428D43B9
:1006A000E4F545E545C39542502AE4F544C3740793
:1006B0009544243AF8E6FF74322544F8E65FF58065
:1006C000AF437E0012079D0544E544C3940840DD16
:0406D000054580CF8D
:0106D4002203
:1007490075D90575DA4C75DB4C75F9F875E9F875E5
:10075900FAF975EA2575FBF975EB25D2AFE4F5973A
:10076900758E80758922758C85758A85D28CD2DEC5
:01077900225D
:03003B0002070FAA
:10070F00C0E0C0D030DF2CD29475E9FA75F9F8E566
:10071F00082427F5EA75FAF9E5092427F5EB75FBA7
:10072F00F90531E531B4320B753100051FE51F7046
:0A073F0002051EC2DFD0D0D0E03268
:0400360075099C228A
:0407D70075099122ED
:040799007F057E005A
:10079D007D6EEF1FAA0670011E4A6008AC051DECA8
:0407AD0060F080F880
:0107B1002225
:10056A00120036C2967F647E00120582D296120568
:08057A0082C296120582D2969E
:10058200E4F582F583AC06AD07D3ED9400EC94005C
:1005920040257A007B05900080E582158270021565
:1005A20083E582458370F2EB1B70011AEB4A70E619
:0705B200ED1D70D51C80D285
:0105B900221F
:0607D000E47FDC00DFFD08
:0107D6002200
:10003E00C2967F647E0012057DC296120582D2960C
:10004E00120749D290D291D2B3D2B4D2B51207D7F9
:10005E007D147F1E1206D97D077F731206D97F325B
:10006E007E001205827D0F7F211206587F327E00A0
:10007E0012058220B50612079930B5051206D580F5
:10008E00F21206097F327E0012058230B406120784
:10009E009920B4097D0F7F0112069C80EE7D0F7FA3
:1000AE000B12069C7F327E001205822090061207EC
:1000BE00993090097D0C7F011206D980EE12056AE7
:1000CE007D0C7F1E1206147F327E001205827D0F7C
:1000DE007F231206587F327E001205827D077F44F1
:1000EE001206D912064D7F327E0012058220B50609
:1000FE0012079930B5051206D580F27D077F1112D1
:10010E0006D91206917F327E0012058220910612C8
:10011E0007993091097D0F7F011206D980EE7D0F70
:10012E007F0512065812056D12057B1207D7851E24
:10013E0018851F191203957FF47E011205827D0C1E
:10014E007F781206147F327E001205827D0F7F2487
:10015E0012069C7F327E001205827D077F6E12068C
:10016E00D912064D7F327E0012058220B506120787
:10017E009930B5051206D580F27FF47E0112058204
:10018E007D0C7F0C1206147F327E0012058230B475
:10019E000612079920B4097D0F7F0112069C80EE8E
:1001AE007D0F7F0612069C7F327E00120582209004
:1001BE00061207993090097D0C7F011206D980EE48
:1001CE0012056A7D0C7F1E12061412064D7F327EBA
:1001DE00001205827D077F2D1206D912064D7F3241
:1001EE007E0012058220B50612079930B50512065B
:1001FE00D580F27D077F0A1206D91206917F327ED4
:10020E00001205822091061207993091097D0F7F09
:10021E00011206D980EE7D0F7F0712065812056D6A
:10022E0012057B1207D7C3E51F9519F51BE51E9521
:10023E0018F51A1203957FF47E011205827D0C7F4C
:10024E00321206147F327E001205827D0F7F22123B
:10025E00069C7F327E001205827D077F6E1206D9C4
:10026E007F327E001205827D0F7F2112069C7F3227
:10027E007E0012058220B30612079930B3051206CE
:10028E00D580F21206097F327E0012058230B40646
:10029E0012079920B4097D0F7F0112065880EE7D5A
:1002AE000F7F031206587F327E00120582209006C1
:1002BE001207993090097D0C7F011206D980EE123B
:1002CE00056A7D0F7F211206587F327E001205824D
:1002DE007D077F171206D97F327E001205827D0FB1
:1002EE007F211206587F327E0012058220B506123B
:1002FE00079930B5051206D580F27D077F051206E7
:10030E00D97F327E001205827D0F7F2612069C7FDA
:10031E00327E001205822091061207993091097DD6
:10032E000F7F011206D980EE7D0F7F0A1206587FCD
:10033E00327E001205827D0F7F0112069C12056D22
:10034E0012057B1207D7C3E51F951BFFE51E951AF5
:10035E00FEC3EF9519F51DEE9518F51C7FF47E0181
:10036E001205827D0C7F3212061412039512056D52
:10037E00C296120582D2967FE87E03120582C2963D
:07038E00120582D29680FEE9
:0300000002047087
:0C047000787FE4F6D8FD7581450204B7E2
:1004FC00BB010689828A83E0225002E722BBFE02FE
:09050C00E32289828A83E4932230
:10051500BC000BBE0029EF8DF084FFADF022E4CCCA
:10052500F875F008EF2FFFEE33FEEC33FCEE9DEC93
:10053500984005FCEE9DFE0FD5F0E9E4CEFD22EDD9
:10054500F8F5F0EE8420D21CFEADF075F008EF2F23
:10055500FFED33FD4007985006D5F0F222C398FD14
:050565000FD5F0EA22B1
:10047C0002003EE493A3F8E493A34003F68001F258
:10048C0008DFF48029E493A3F85407240CC8C33381
:10049C00C4540F4420C8834004F456800146F6DF50
:1004AC00E4800B01020408102040809005BAE47E21
:1004BC00019360BCA3FF543F30E509541FFEE49345
:1004CC00A360010ECF54C025E060A840B8E493A30C
:1004DC00FAE493A3F8E493A3C8C582C8CAC583CA37
:1004EC00F0A3C8C582C8CAC583CADFE9DEE780BEEF
:0106080000F1
:00000001FF
