:10128A0014086363636363636363636363636363CE
:10129A00636363636363141C0202020202020202B2
:0C12AA0002020202020202020202020220
:0413C6007F327E00F4
:0B13CA00EF1FAC0670011E4C70F622F5
:100CC4007590FE8590355335F0E53564F060441237
:100CD40013C68590355335F0E53564F060EB8590A7
:100CE40035E5352482601B24C0601224E0600924A9
:100CF400F070127530FC800D7530FB80087530FA89
:100D040080037530F9E53564F060CD859035533551
:100D1400F080F27590FD8590355335F0E53564F03B
:100D240060441213C68590355335F0E53564F060A0
:100D3400EB859035E5352483601B24C0601224E0E4
:100D4400600924F07012753001800D75300280083E
:100D54007530038003753004E53564F060CD85900B
:100D6400355335F080F27590FB8590355335F0E5B9
:100D74003564F060441213C68590355335F0E5357B
:100D840064F060EB859035E5352485601B24C060F4
:100D94001224E0600924F07012753005800D75305E
:100DA4000680087530078003753008E53564F06007
:100DB400CD8590355335F080F27590F78590355395
:100DC40035F0E53564F060441213C685903553352B
:100DD400F0E53564F060EB859035E5352489601BDA
:100DE40024C0601224E0600924F070127530098078
:100DF4000D75300A800875300B800375300CE535AD
:100E040064F060CD8590355335F080F220B00C123B
:100E140013C620B00375301530B0FD20B10C121389
:100E2400C620B10375301630B1FD20B30C1213C6C1
:100E340020B30375301730B3FD20B40C1213C62051
:100E4400B40375301830B4FD20B50C1213C620B5A8
:100E5400037530FF30B5FD20B60C1213C620B6035F
:100E64007530FE30B6FD20B70C1213C620B70375DB
:070E740030FD30B7FDAF3087
:010E7B002254
:041002007D017F02EB
:021006008F3524
:10100800ED121188104F00105F0110680210700374
:10101800107204107405107606107E0710860810EA
:101028008E0910960A109E0B10A60C10B6B910AEB9
:10103800F910BEFA10C6FB10CEFC10D6FD10DEFE6D
:1010480010E6FF000010ECD2A0AF357E007C277DB3
:10105800101211210213CA7536007537130210ECED
:10106800753600753711807C8024802A803075366B
:101078000075370A806E75360075370980667536D3
:1010880000753708805E75360075370780567536E7
:101098000075370F804E75360075370E80467536E9
:1010A8000075370C803E75360075371480367536F6
:1010B80000753715802E75360075371780267536FA
:1010C8000075371A801E75360075371D80167536FF
:1010D8000075371F800E7536007537238006753604
:1010E80000753727AF357E007C137D88121121AC3F
:1010F80036AD37121133AB07AA06EB1BAE027001EF
:101108001A4E6014C2A0AF37AE361213CAD2A0AFBF
:0811180037AE361213CA80E263
:0111200022AC
:10057C007DFB7F041210067D017F031210067D03A4
:10058C007F011210067D057F041210067D037F0388
:10059C001210067D047F011210067D057F061210D5
:1005AC00067D067F021210067D057F081210067D5F
:1005BC00067F031210067D057F011210067D047F55
:1005CC00021210067D037F021210067D027F0412B8
:1005DC0010067DFB7F041210067DF97F04121006B5
:1005EC007D027F021210067D017F011210067DF93B
:1005FC007F011210067D017F04121006E4FD7F04BA
:10060C001210067D017F041210067D017F0412106A
:10061C00067D017F041210061210027D027F021269
:10062C0010067D037F061210067D027F0212100653
:10063C007D017F08121006E4FD7F041210067D0276
:10064C007F041210067D027F041210067D027F04C7
:10065C001210067DFA7F021210061210027DF97F2D
:10066C00061210067DFA7F021210067DFB7F041223
:10067C001006E4FD7F041210067D017F04121006A3
:10068C001210021210027D017F041210067DFD7FF4
:10069C00021210061210027DF97F061210061210BB
:1006AC00027DFA7F081210067D027F041210067D6F
:1006BC00027F031210067D017F011210067D027F5E
:1006CC00031210067D027F011210067D027F0212BA
:1006DC0010067D037F021210067D027F08121006A1
:1006EC007D027F081210067D017F041210067D0129
:1006FC007F041210067D017F041210061210027D79
:10070C00027F021210067D037F061210067D027F07
:10071C00021210067D017F08121006E4FD7F041200
:10072C0010067D027F041210067D027F0412100653
:10073C007D027F041210067DFA7F02121006121041
:10074C00027DF97F061210067DFA7F021210067DDB
:10075C00FB7F04121006E4FD7F041210067D017F5E
:10076C00041210061210021210027D017F041210E6
:10077C00067DFD7F021210061210027DF97F061213
:10078C0010061210027DFA7F081210067D027F04FB
:10079C001210067D027F031210067D017F011210DC
:1007AC00067D027F031210067D027F011210067D6A
:1007BC00027F021210067D037F021210067D057F58
:1007CC00081210067D057F081210067D037F0212A9
:1007DC0010067D037F061210067D027F02121006A2
:1007EC007D017F04121006E4FD7F041210067DF9D2
:1007FC007F031210067DF97F011210067DF97F012F
:10080C001210067DFB7F031210067DFD7F0812106F
:10081C00067DFA7F061210067DF97F021210067D06
:10082C00017F041210067D027F021210067D037FE9
:10083C00021210067DF97F061210067DFA7F021255
:10084C0010067DFA7F081210067D027F0312100637
:10085C007D027F011210067D027F0212100612101B
:10086C00027D027F081210067D027F061210067DA3
:10087C00FB7F021210067D017F041210067D027FA1
:10088C00021210067D037F021210067D027F0612F3
:10089C0010061210027D027F081210067DFB7F04E9
:1008AC001210067DFB7F041210067D017F041210CE
:1008BC00067D037F041210067D057F061210067D4F
:1008CC00047F021210067D037F021210067D027F48
:1008DC00021210067D037F041210067DFB7F0312AB
:1008EC0010067DFB7F011210061210027D037F02A1
:1008FC001210067D057F031210067D047F01121075
:10090C00067D037F021210067D027F021210067D07
:10091C00037F081210067D037F081210067DFB7FF3
:10092C00041210067DFB7F041210067D017F041259
:10093C0010067D037F041210067D057F061210063B
:10094C007D047F021210067D037F021210067D02C9
:10095C007F021210067D037F041210067DFB7F03BD
:10096C001210067DFB7F011210061210027D037F10
:10097C00021210067D057F031210067D047F011202
:10098C0010067D037F021210067D027F02121006F4
:10099C007D037F081210067D037F081210067D026E
:1009AC007F061210061210027D027F041210067DC3
:1009BC00037F041210067D057F061210067D057F4D
:1009CC00021210067D057F081210067D017F0C12A5
:1009DC001006E4FD7F041210067D057F031210063D
:1009EC007D057F011210067D067F041210067D0521
:1009FC007F04121006E4FD7F041210067D057F06AD
:100A0C001210067D057F021210067D067F0812105B
:100A1C00067D087F081210067D087F081210067DDF
:100A2C00087F081210067D087F081210067D087FCB
:040A3C00040210069A
:100A4000E4FD7F041210067DFB7F021210067D017B
:100A50007F061210061210027D017F031210067D20
:100A6000017F011210067DFB7F021210067DFA7FC6
:100A7000011210067DF97F011210067D017F04121C
:100A800010067D017F04121006E4FD7F021210069D
:100A90007D037F021210061210027D027F011210E8
:100AA000067D037F011210067D057F031210067D6F
:100AB000057F011210067D057F041210067D037F5D
:100AC000031210067D037F011210067D017F0312C1
:100AD00010067D037F011210067D057F03121006AC
:100AE0007D037F011210067D027F041210067D0235
:100AF0007F081210067D067F041210067D057F0414
:100B00001210067D027F041210067D037F0412106E
:100B1000067D057F021210067D037F041210067DFC
:100B2000057F021210067D037F021210067D027FF0
:100B3000011210067D037F011210067D017F031252
:100B400010067D037F011210067D037F041210063C
:100B5000E4FD7F041210067DFB7F031210067DFA70
:100B60007F011210061210021210027D037F031281
:100B700010067D037F011210067D057F031210060B
:100B80007D057F011210067D027F021210067D0294
:100B90007F011210067D027F011210067DFA7F038D
:100BA0001210067DFA7F011210067D027F061210D8
:100BB000067DFB7F021210067D017F0612100612D1
:100BC00010027D037F061210067D037F02121006BD
:100BD0007D057F081210067D057F081210067D0135
:100BE0007F031210067D037F011210067D057F032F
:100BF0001210067D057F011210067D067F0412107B
:100C0000067D057F041210067D037F031210067D0A
:100C1000017F011210067D057F021210067D057FFF
:100C2000011210067D057F011210067D037F02125E
:100C30001006E4FD7F02121006121002E4FD7F028E
:100C40001210067DFB7F041210067D017F04121036
:100C5000067D037F031210067D017F011210067DC1
:100C6000057F021210067D057F011210067D057FAB
:100C7000011210067D037F02121006E4FD7F0212AE
:100C80001006121002E4FD7F021210067DFB7F04A5
:100C90001210067D017F041210067DFB7F041210E6
:100CA000067D017F041210067DFB7F041210067D75
:100CB000017F041210067D017F081210067D017F5E
:040CC0000802100610
:100006007D0A7F081210067D097F081210067D08FA
:100016007F081210067D077F081210067D067F08EE
:100026001210067D057F081210067D067F08121045
:10003600067D077F081210067D087F081210067DD0
:10004600077F081210067D067F081210067D057FC1
:10005600081210067D047F081210067D037F081221
:1000660010067D047F081210067D027F0812100616
:100076007D087F021210067D077F021210067D089A
:100086007F021210061210027DF97F021210067D01
:10009600057F021210067D027F021210067D037F85
:1000A600021210061210027D087F021210067D074A
:1000B6007F021210067D067F021210067D077F0260
:1000C6001210067D0A7F021210067D0C7F021210A6
:1000D600067D0C7F021210067D0B7F021210067D34
:1000E6000A7F021210067D097F021210067D0B7F21
:1000F600021210067D0B7F021210067D0A7F021285
:1001060010067D087F021210067D077F0212100678
:100116007D067F021210067D057F021210067D0401
:100126007F021210067D037F021210067D027F02F7
:100136001210067D047F021210067D037F02121044
:10014600067D027F021210061210027D027F021245
:1001560010067D037F021210067D047F0212100630
:100166007D057F021210067D027F021210067D05B4
:100176007F021210067D047F021210067D037F02A5
:100186001210067D067F021210067D057F021210F0
:10019600067D047F021210067D057F021210067D81
:1001A600047F021210067D037F021210067D027F75
:1001B600021210061210027DFA7F021210067D0648
:1001C6007F021210067D077F021210067D087F024D
:1001D6001210067D077F021210067D067F0212109E
:1001E600067D057F021210067D047F021210067D31
:1001F600037F021210067D027F021210067D067F23
:10020600021210067D057F021210067D067F02127D
:1002160010067D057F021210067D047F021210066D
:100226007D037F041210067D0A7F041210067D09E5
:100236007F081210067D087F081210067D097F08C8
:100246001210067D087F041210067D0A7F04121024
:10025600067D097F041210067D0B7F041210067DB1
:100266000C7F021210067D0A7F011210067D0B7F9D
:10027600011210067D0C7F021210067D0A7F011204
:1002860010067D0B7F011210067D0C7F01121006F1
:100296007D057F011210067D067F011210067D077F
:1002A6007F011210067D087F011210067D097F016D
:1002B6001210067D0A7F011210067D0B7F011210B7
:1002C600067D0A7F021210067D087F011210067D48
:1002D600097F011210067D0A7F021210067D037F38
:1002E600011210067D047F011210067D057F0112A2
:1002F60010067D067F011210067D057F011210068D
:100306007D047F011210067D057F011210067D0314
:100316007F011210067D047F011210067D057F0104
:100326001210067D047F021210067D067F01121050
:10033600067D057F011210067D047F021210067DE0
:10034600037F011210067D027F011210067D037FD6
:10035600011210067D027F011210067D017F011237
:1003660010067D027F011210067D037F0112100622
:100376007D047F011210067D057F011210067D06A1
:100386007F011210067D047F021210067D067F0192
:100396001210067D057F011210067D067F021210DF
:1003A600067D077F011210067D087F011210067D6B
:1003B600057F011210067D067F011210067D077F5C
:1003C600011210067D087F011210067D097F0112B9
:1003D60010067D0A7F011210067D0B7F01121006A2
:1003E6007D0C7F011210067D0A7F021210067D0821
:1003F6007F011210067D097F011210067D0A7F0219
:100406001210067D097F011210067D087F01121069
:10041600067D097F011210067D077F011210067DF9
:10042600087F011210067D097F011210067D0A7FE2
:10043600011210067D097F011210067D087F011248
:1004460010067D077F011210067D087F0212100636
:100456007D067F011210067D077F011210067D08BA
:100466007F021210067D017F011210067D027F01B8
:100476001210067D037F011210067D047F01121003
:10048600067D037F011210067D027F011210067D94
:10049600037F011210067D087F011210067D077F7B
:1004A600011210067D087F011210067D067F0212DA
:1004B60010067D087F011210067D077F01121006C7
:1004C6007D067F021210067D057F011210067D044F
:1004D6007F011210067D057F011210067D047F0143
:1004E6001210067D037F011210067D047F01121093
:1004F600067D057F011210067D067F011210067D1E
:10050600077F011210067D087F011210067D067F07
:10051600021210067D087F011210067D077F011268
:1005260010067D087F021210067D077F0112100655
:100536007D067F011210067D077F011210067D08D9
:100546007F011210067D097F011210067D087F01CA
:100556001210067D077F011210067D087F0112101A
:10056600067D067F011210067D077F011210067DAB
:06057600087F04021006DC
:10139900E4F9740829F8E6FD6463600C741C29F803
:0813A900E6FF1210060980EABC
:0113B1002219
:0513F7001213FCD2A658
:0113FC0022CE
:0A13E300D2A71213F7C2A70213FCF1
:0A13ED00C2A71213F7D2A70213FCE7
:08131E001213E37FA012135D1E
:10132600D2A61213FC30A70BE535C394FA50040578
:081336003580F2C2A60213FC8F
:10135D00E4FEEF25E0FFC2A61213FC92A71213F7CD
:0E136D000EBE08EEC2A61213FCD2A70213FC9D
:1012B700C2A61213FCD2A71213FCE4FED2A6121385
:1012C700FCEF25E0FDA2A7E4334DFFC2A61213FCF5
:0412D7000EBE08E857
:0112DB0022F0
:0613B2002CF8A6077F6481
:0D13B800EFD3940040077E64DEFE1F80F33B
:0113C5002205
:06137B00AF032BF8E6FDB4
:10138100AC0712131EAF0412135D121326AF051220
:08139100135D1213260213ED97
:02133E00AD07F9
:1013400012131EAF0512135D1213261213E37FA1B1
:0C13500012135D1213261212B71213EDD7
:01135C00226E
:1012DC00E4FB740812137B7F641213B80BBB14F27B
:1012EC007B14740812137B7F641213B80BBB28F2A7
:0112FC0022CF
:1012FD00E4FCAF0412133E74081213B20CBC14F2CA
:10130D007C14AF0412133E74081213B20CBC28F2F5
:01131D0022AD
:0E13D500D2AFD2A8D2A71213FCD2A60213FCEC
:10123A001213D51212FD7D037F01121006E4FD7F01
:10124A00011210067D037F011210067530F7120C89
:10125A00C4AD07BD1505120A408016BD1605120554
:10126A007C800EBD17051200068006BD18081213F1
:10127A0099E4F53080057F01121006E4F53080CE3E
:03000300020E7C6E
:100E7C00C0E0C0F0C083C082C0D075D000C000C03C
:0D0E8C0001C002C003C004C005C006C007BD
:100E99007D037F01121006E4FD7F011210067D0318
:100EA9007F01121006791478087463F608D9FC7961
:100EB9000020B203020F76120CC48F31C3E53164EE
:100EC9008094794009D3E5316480948C400B120CED
:100ED900C48F3120B2E6020F7CAD317F01121006BA
:100EE900E531B40C03753100740829F8A631120CE8
:100EF900C48F31C3E531648094954009D3E53164E9
:100F0900809498400A120CC48F3120B2E68064E5BF
:100F19003124EA601214601714601C2403701E74D3
:100F29001C29F876088016741C29F87604800E743A
:100F39001C29F876028006741C29F87601741C298C
:100F4900F8E6FF740829F8E6FD12100609E9640FAE
:100F59006003020EBA7D037F01121006E4FD7F01D2
:100F69001210067D037F01121006020EBA740829B9
:100F7900F876637900751B63E4FD7F08121006E4B7
:100F8900FD7F08121006E4FD7F0812100674082977
:100F9900F8E6FD6463600C741C29F8E6FF1210067C
:100FA9000980EA1212DCE4FD7F08121006E4FD7FD5
:100FB90008121006E4FD7F081210067D037F011256
:100FC9001006E4FD7F011210067D037F0112100651
:0E0FD900E4FD7F011210067D037F0112100659
:100FE700D007D006D005D004D003D002D001D0005E
:0B0FF700D0D0D082D083D0F0D0E03208
:030000000211AE3C
:0C11AE00787FE4F6D8FD7581370211F55A
:10112100EF8DF0A4A8F0CF8CF0A428CE8DF0A42EE2
:02113100FE229C
:10113300BC000BBE0029EF8DF084FFADF022E4CCA0
:10114300F875F008EF2FFFEE33FEEC33FCEE9DEC69
:10115300984005FCEE9DFE0FD5F0E9E4CEFD22EDAF
:10116300F8F5F0EE8420D21CFEADF075F008EF2FF9
:10117300FFED33FD4007985006D5F0F222C398FDEA
:051183000FD5F0EA2287
:10118800D083D082F8E4937012740193700DA3A3F6
:1011980093F8740193F5828883E47374029368600A
:0611A800EFA3A3A380DF0A
:1011BA0002123AE493A3F8E493A34003F68001F2FF
:1011CA0008DFF48029E493A3F85407240CC8C33336
:1011DA00C4540F4420C8834004F456800146F6DF05
:1011EA00E4800B010204081020408090128AE47EF9
:1011FA00019360BCA3FF543F30E509541FFEE493FA
:10120A00A360010ECF54C025E060A840B8E493A3C0
:10121A00FAE493A3F8E493A3C8C582C8CAC583CAEB
:10122A00F0A3C8C582C8CAC583CADFE9DEE780BEA3
:0112B6000037
:00000001FF
