:1000030000000000000000000000000000000000ED
:1000130000000000000000000000000000000000DD
:100023001800000000000000000000000000000CA9
:100033001800000000000000000000000000000C99
:100043001C00000000000000000000000000001C75
:100053001C00000000000000000000000000001C65
:100063001E00000000000000000000000000003C33
:100073001E00000000000000000000000000007CE3
:100083001F00000000000000000000000000087CCA
:100093001F180000000000000000000000001CFC0E
:1000A3000FB80000000000000000000000001CF872
:1000B3000FB80000000000000000000000001DF861
:1000C3000F980000000000000000000000003DF851
:1000D3000FFC0000000000000000000000003FF8DB
:1000E30027FC0000000000000000000000003FF0BB
:1000F30037FE0000000000000000000000007FF059
:100103003BFE0000000000000000000000007FE054
:100113003FFE000000000000000000000000FFE0C0
:100123001FFF000000000000000000000000FFE0CF
:100133001FFF000000000000000000000000FFC0DF
:100143001FFF000000000000000000000000FFD8B7
:100153000FFF8000000000000000000C0001FFB84A
:100163000FFF8000000000000000000C0001FFF8FA
:1001730007FFC000000000000000000C0001FFF8B2
:1001830017FFC0003CEDDB8EE606E3BE0003FFF085
:100193001BFFC0007DEDFF9EEE0FE7FE0003FFF0A7
:1001A3001FFFC0006DC5DD30CE0FECD80003FFF09C
:1001B3000FFFE000DD8D9B30CC076D980003FFE05F
:1001C3000FFFE000F18DB361CC066F380007FFE04D
:1001D30007FFF000E189B3618806FE380007FFC01E
:1001E30007FFF001C99BB661980CD832000FFF805E
:1001F30007FFF00199B3B665B88CD9B6000FFFA01D
:1002030003FFF001F9F3367DF9CCDFBC000FFFF0FB
:1002130001FFF800F1E3367DFDCCDF38001FFFE07E
:1002230007FFFC00C0C00039CC8CCE30001FFFE0BC
:1002330007FFFC000000000000000000003FFFC0BB
:1002430003FFFC000000000000000000003FFFC0AF
:1002530001FFFE000000000000000000007FFF809F
:1002630000FFFF3000000000000000000CFFFF0053
:10027300007FFFF000000040000000000FFFFE00C1
:10028300003FFFF0000000C0000000000FFFFC0073
:10029300003FFFF0000000F80180000C0FFFFC009E
:1002A30001FFFFF0100001F80180009E0FFFFF80A7
:1002B30000FFFFF0380003F801C000FF0FFFFF004D
:1002C30000FFFFF0180003F000C000F707FFFF0076
:1002D300007FFFF03800036000D000EE07FFFE0050
:1002E300003FFFF071E00FF801F801DC07FFFC00AD
:1002F300000FFFF867E03EF803FC01F80FFFF00082
:100303000003FFF8EEE03DF037CE01BC0FFFC00065
:100313000000FFFCFD803BB01CEE003E1FFF000011
:1003230000003FFFF9807FF81DEE001F3FFC000037
:1003330000007FFFE3007FF81FDC007FFFFE00006B
:100343000000FFFFE7006DB01FD801FFFFFF0000B3
:100353000000FFFF660C79FC1CF003C7FFFF0000E1
:1003630000007FFE6E0C31F00FF003867FFE00006D
:10037300000003F86C0C01B00FE003061FC000007F
:10038300000000006E3C01FE078003060000000031
:100393000000000067F801FE0181018600000000F3
:1003A3000000000063F0018001FF00C600000000B0
:1003B300000000006000018000FE007E00000000DD
:1003C30000000000000000800000003C000000006E
:1003D300000000000000000000000000000000001A
:1003E300000000000000000000000000000000000A
:1003F30000000000000000000000000000000000FA
:100403000000600000030000000000000000000086
:100413000000600000038000000180000000000075
:1004230000006000000380000000E0000000000006
:1004330000007000000380000000F00000000000D6
:10044300001C7000000380000000F00000000000AA
:10045300001C7000000380000000F8000000000092
:10046300001C7000000380000000784000180000AA
:10047300001CF0000003B000000079E0001C030042
:10048300001CE0000003F80000007FE0000C078080
:10049300009CE0000007FC0000003FF0000C0F8010
:1004A300019CC000000FFE0000007FE0000E3F80B3
:1004B300018DC000001F9C000001FDE0000E7F8045
:1004C300038DC00000FF9C000007FF80000E7F80AB
:1004D30003CF800000FFBC00001FFF00000E7F0061
:1004E30003C7800000F3B800003FFE00000E3E008B
:1004F30001C7800000F3B80000FF7C00000E1E005F
:1005030001C7B0000073F80001FE7800000E1C0064
:1005130001C7FC000073F00003FCF800001E380064
:1005230001CFFC00007FF00003F8F000001F2180E2
:1005330001FFCE00007FF00007F0FC00001F07C0A2
:1005430001FF0E00007FF00007E1FE00001F0FE037
:1005530001FE1F00007F07C00FC1FF00001F0FE057
:1005630004FC1F00003F1FE00F01FF00011F1FF0ED
:100573000CF83F000007FFE00E03FF0001BF9E7071
:1005830009E07F000007FFE00C03FB0001BEFC70E5
:1005930009C07E00001F03C00803F30001FEF070D2
:1005A3001B00F800007E00000807E30003FCE67070
:1005B3001E03F00001F4E0000807E30003FCEFF082
:1005C3001C07C00007C1F000000FFB0003D8DFE0E9
:1005D3001C3FC0003F89F000000FFF0007D8FFE079
:1005E3001C3FC0007F0BB800001FFD000798DFE031
:1005F300387FC0007E1F3800041EFD000798CFE03F
:10060300387BC0007C1F3800063CFD000F98CEC02D
:1006130038738000781C380003FDFD000F18CCC030
:10062300787380007018380003F9F90007184DC07B
:1006330038270000001B380001F9D90007187FC0D4
:1006430030070000001BB80001F1D90006187F80B5
:1006530030078000001BB80000C1F90006187F8036
:100663003007E0000039B8000001B90002183F80EC
:100673003007E0000039B8000001BD0000183E005B
:10068300300FF0000039B8000001BD8000181C00D5
:10069300101FF000003B38000001BF800038180035
:1006A300103FF000003B380000019F8000381030FD
:1006B300007DF000003B380000018F80003803F814
:1006C30000F8F000003B38000001CD8000380FFC3B
:1006D30000E1E000003B30000001DD80003C7FFCD6
:1006E3000181E000003B30000001B980001DFFFCE8
:1006F3000100E000001730000001B180001DF81C6C
:100703000100E000001730000001A180001DF0008F
:100713000100C000001670000001A180001CC00091
:100723000101C000001E700000019180001C8000C8
:100733000101C000000E780000019180001C000040
:100743000181C000000E780000019B80001C0000A6
:1007530000C1C000001C7C0000018F80001C000051
:1007630000E18000001C3C0000008F80001C0000A2
:10077300007F8000003C3E0000008F80000C0000E2
:10078300007F800000381E0000008700000C00007E
:10079300003F000000701E0000000700000C000076
:1007A300001F000000F00E00000003000004000022
:1007B300001F000001E00E00000003000004000021
:1007C300000E000001C0060000000200000000004F
:1007D3000000000000000000000000000000000016
:1007E3000000000000000000000000000000000006
:1007F30000000000000000000000000000000000F6
:10095900E4F582F583AC06AD07D3ED9400EC940081
:1009690040257A007B05900080E58215827002158A
:1009790083E582458370F2EB1B70011AEB4A70E63E
:07098900ED1D70D51C80D2AA
:010990002244
:060A3200E47FDC00DFFDA3
:010A3800229B
:0B09F800C2B5C2B78F90120A03D2B73D
:060A0300E47F0E00DFFDA0
:010A090022CA
:040A0A00EF2480FF56
:0C0A0E00D2B6C2B41209F8C2B7020A3214
:0C0A1A00D2B6D2B41209F8C2B7020A32F8
:1009B900D2B6D2B4C2B5C2B7120913FF6013F5900B
:1009C9001209FEC2B7120A32740129F9E43AFA800F
:0209D900E72213
:060803008B088A09890A36
:10080900E4F50BF50CF50DF50EF50FF510F511F5F1
:1008190012F50BF50CE4F511F512E4F50FF5107F5F
:1008290034120A0EAF12120A0AAF10EF2480FFAE7B
:100839000CEE75F008A42FFF120A0EAB08AA09A93D
:100849000A050EE50EAE0D7002050D14F5828E83B4
:1008590012092CFF120A1AAB08AA09A90A050EE502
:100869000EAE0D7002050D14F5828E8312092CFF50
:10087900120A1A0510E5107002050FC3E510940855
:10088900E50F940040990512E51270020511C3E5C0
:10089900129420E51194004081050CE50C700205C5
:1008A9000BC3E50C9402E50B9400500302081E7F6C
:0408B90036020A0EEB
:1008BD00E4F508F509F50AF50BF50AF50BE4F5086D
:1008CD00F5097F34120A0EAF0B120A0AAF09120A8C
:1008DD000AE4FF120A1AE4FF120A1A0509E5097063
:1008ED00020508C3E5099410E508940040D4050BF2
:1008FD00E50B7002050AC3E50B9420E50A94004050
:06090D00BC7F36020A0E59
:1009DB00C2B77F30120A0E7F0C120A0E7F01120A69
:0D09EB000E7F06120A0E7F0A7E00020959D7
:100991007F647E001209591209DB7BFF7A04790317
:1009A1001208037FA07E0F1209591208BD7BFF7A3E
:0809B10000790312080380FE27
:03000000020A26CB
:0C0A2600787FE4F6D8FD7581120209917A
:10091300BB010689828A83E0225002E722BBFE02E2
:09092300E32289828A83E4932215
:10092C00BB010CE58229F582E5833AF583E0225080
:10093C0006E92582F8E622BBFE06E92582F8E222CA
:0D094C00E58229F582E5833AF583E49322E4
:00000001FF
