:10062000021E000002180000021A0000021C000056
:100630000E0A74313D2020732C74323D202073004B
:10064000112074333D2020732C746F74616C3D2035
:100650002020000832F8FCF4F6F2F3F1F9083A8FA2
:0E066000CF4F6F2F3F1F9F0131000208000097
:0F081700C2B08FA0120835D2B2120835C2B22279
:0F082600D2B08FA0120835D2B2120835C2B2225A
:100003008B428A438944D2B0C2B2AB42AA43A944C9
:10001300120562FF601CF5A0120835D2B212083532
:10002300C2B212083574012544F544E43543F5435F
:0300330080D82250
:1007DF00C2B1C2B27F381208177F0C1208177F06FA
:0F07EF001208177F011208177F0A7E000205E823
:1003FB001207DFAE18AF197C007D0A12057BEF24C4
:10040B0030F50DAE18AF197C007D0A12057BED247B
:10041B0030F50EAE1AAF1B7C007D0A12057BEF2464
:10042B0030F514AE1AAF1B7C007D0A12057BED2450
:10043B0030F515AE1CAF1D7C007D0A12057BEF2439
:10044B0030F523AE1CAF1D7C007D0A12057BED241D
:10045B0030F524E519251BFFE518351AFEE51D2F90
:10046B00FBE51C3EFA7C007D64AF03FE12057BEFBF
:10047B002430F52D7C007D64AF03AE0212057B7E2C
:10048B00007F0ACFCDCFCECCCE12057BEF2430F53B
:10049B002EE519251BFFE518351AFEE51D2FFFE587
:1004AB001C3EFE7C007D0A12057BED2430F52F7F70
:1004BB00801208177B007A00790A1200037FC012A2
:0B04CB0008177B007A00792002000374
:04073A007D087F01B6
:04073E008F428D4316
:10074200E4F545E545C395425027E4F544743A255E
:1007520044F8E6FF74322544F8E65FF580AF437E45
:10076200001208020544E544C3940840E0054580B0
:01077200D2B4
:010773002263
:0706FA0012083C7D137F0F85
:040701008F428D4353
:10070500E4F545E545C39542502AE4F544C374072D
:100715009544FF243AF8E6FE74322FF8E65EF5803C
:10072500AF437E001208020544E544C3940840DD4A
:04073500054580CF27
:01073900229D
:0B06B6007F327E001205E87D0F7F22DE
:0406C1008F428D4394
:1006C500E4F545E545C39542502AE4F544C374076E
:1006D50095442432F8E6FF743A2544F8E65FF58040
:1006E500AF437E001208020544E544C3940840DD8B
:0406F500054580CF68
:0106F90022DE
:0E066F0012083C7F327E001205E87D0F7F24CA
:04067D008F428D43D8
:10068100E4F545E545C39542502AE4F544C37407B2
:100691009544243AF8E6FF74322544F8E65FF58084
:1006A100AF437E001208020544E544C3940840DDCF
:0406B100054580CFAC
:0106B5002222
:1007AE0075D90575DA4C75DB4C75F9F875E9F87580
:1007BE00FAF975EA2575FBF975EB25D2AFE4F597D5
:1007CE00758E80758922758C85758A85D28CD2DE60
:0107DE0022F8
:03003B0002077445
:10077400C0E0C0D030DF2CD29475E9FA75F9F8E501
:10078400082427F5EA75FAF9E5092427F5EB75FB42
:10079400F90531E531B4320B753100051FE51F70E1
:0A07A40002051EC2DFD0D0D0E03203
:0400360075099C228A
:04083C007509912287
:0407FE007F057E00F5
:100802007D6EEF1FAA0670011E4A6008AC051DEC42
:0408120060F080F81A
:0108160022BF
:1005D000120036C2967F647E001205E8D29612059C
:0805E000E8C2961205E8D2966C
:1005E800E4F582F583AC06AD07D3ED9400EC9400F6
:1005F80040257A007B05900080E5821582700215FF
:1006080083E582458370F2EB1B70011AEB4A70E6B2
:07061800ED1D70D51C80D21E
:01061F0022B8
:06083500E47FDC00DFFDA2
:01083B00229A
:10003E00C2967F647E001205E3C2961205E8D29640
:10004E001207AED290D291D2B3D2B4D2B512083C2E
:10005E007D147F1E12073E7D087F3712073E7D06F8
:10006E007F3C12073E7F327E001205E87D0F7F2116
:10007E001206C17F327E001205E820B5061207FE79
:10008E0030B50512073A80F27FF47E011205E87D45
:10009E00137F081207017F327E001205E830B40686
:1000AE001207FE20B4097D0F7F0112067D80EE7DC2
:1000BE000F7F0C12067D7F327E001205E82090061F
:1000CE001207FE3090097D097F0112073E80EE1265
:1000DE0005D07D137F1E1207017F327E001205E8C8
:1000EE007D0F7F231206C17F327E001205E87D0848
:1000FE007F0912073E7D067F3212073E7D087F097B
:10010E0012073E1206B67F327E001205E820B506B3
:10011E001207FE30B50512073A80F27D067F1112E6
:10012E00073E7F327E001205E87D0F7F2312067D8B
:10013E007F327E001205E82091061207FE309109EB
:10014E007D0F7F0112073E80EE7D0F7F071206C1E5
:10015E001206FA7F327E001205E87D0F7F0112062D
:10016E007D1200367FC87E001205E87D137F0F12C8
:10017E00073E1205D31205E1851E18851F191203BD
:10018E00FB7D137F7812070112066F7F327E0012FD
:10019E0005E87D087F0F12073E7D067F4612073E5B
:1001AE007D087F0F12073E7F327E001205E87D0F1D
:1001BE007F211206C17F327E001205E820B506129D
:1001CE0007FE30B50512073A80F27FF47E01120564
:1001DE00E87D137F0A1207017F327E001205E83098
:1001EE00B4061207FE20B4097D0F7F0112067D8032
:1001FE00EE7D0F7F0712067D7F327E001205E8200E
:10020E0090061207FE30900512073A80F21205D0C2
:10021E007D137F1E1207011206B67F327E00120575
:10022E00E87D087F0A12073E7D067F1E12073E7D7F
:10023E00087F0A12073E1206B67F327E001205E8CC
:10024E0020B5061207FE30B50512073A80F27D087A
:10025E007F0A12073E1206727F327E001205E820D8
:10026E0091061207FE3091097D0F7F0112073E8025
:10027E00EE7D0F7F0C1206C11206FA7F327E00123F
:10028E0005E87D0F7F0112067D1200367FC87E00C5
:10029E001205E87D137F0F12073E1205D31205E1FA
:1002AE00C3E51F9519F51BE51E9518F51A1203FBEC
:1002BE007D137F3712070112066F7F327E00120503
:1002CE00E87D087F0F12073E7D067F5012073E7DA8
:1002DE00087F0F12073E1206727F327E001205E86B
:1002EE0020B3061207FE30B30512073A80F27FF4F0
:1002FE007E011205E87D137F0A1207017F327E0010
:10030E001205E830B4061207FE20B4097D0F7F01F6
:10031E001206C180EE7D0F7F031206C17F327E0072
:10032E001205E82090061207FE30900512073A805B
:10033E00F21205D01206BD7F327E001205E87D084E
:10034E007F1712073E1206B67F327E001205E82096
:10035E00B5061207FE30B50512073A80F27D077F0B
:10036E000512073E7F327E001205E87D0F7F2612B2
:10037E00067D7F327E001205E82091061207FE30C0
:10038E0091097D0F7F0112073E80EE7D0F7F0A12CD
:10039E0006C17F327E001205E81206FA7F327E0019
:1003AE001205E87D0F7F0512067D1200367FC87E8E
:1003BE00001205E87D137F0F12073EC3E51F951B44
:1003CE00FFE51E951AFEC3EF9519F51DEE9518F56E
:1003DE001C1203FB1205D3C2961205E8D2967FF4C7
:0D03EE000E1205E8C2961205E8D29680FEB8
:030000000204D621
:0C04D600787FE4F6D8FD75814502051D15
:10056200BB010689828A83E0225002E722BBFE0297
:09057200E32289828A83E49322CA
:10057B00BC000BBE0029EF8DF084FFADF022E4CC64
:10058B00F875F008EF2FFFEE33FEEC33FCEE9DEC2D
:10059B00984005FCEE9DFE0FD5F0E9E4CEFD22ED73
:1005AB00F8F5F0EE8420D21CFEADF075F008EF2FBD
:1005BB00FFED33FD4007985006D5F0F222C398FDAE
:0505CB000FD5F0EA224B
:1004E20002003EE493A3F8E493A34003F68001F2F2
:1004F20008DFF48029E493A3F85407240CC8C3331B
:10050200C4540F4420C8834004F456800146F6DFE9
:10051200E4800B0102040810204080900620E47E53
:10052200019360BCA3FF543F30E509541FFEE493DE
:10053200A360010ECF54C025E060A840B8E493A3A5
:10054200FAE493A3F8E493A3C8C582C8CAC583CAD0
:10055200F0A3C8C582C8CAC583CADFE9DEE780BE88
:01066E00008B
:00000001FF
