:07014E00010A000208000095
:10000300E4F582F583AC06AD07D3ED9400EC9400E0
:1000130040257A007B05900080E5821582700215E9
:1000230083E582458370F2EB1B70011AEB4A70E69D
:07003300ED1D70D51C80D209
:01003A0022A3
:1001000075D90575DA4C75DB4C75F9F875E9F87534
:10011000FAF975EA2575FBF975EB25D2AFE4F59789
:10012000758E80758922758C85758A85D28CD2DE14
:0101300022AC
:10013100120100C29375081E75091E7FD07E071239
:0D014100000375089675099612000380E80A
:03003B000200CAF6
:1000CA00C0E0C0D030DF28D291D29475E9FA75F930
:1000DA00F8E5082427F5EA75FAF9E5092427F5EB86
:1000EA0075FBF9050AE50AB43205750A00B293C22E
:0600FA00DFD0D0D0E0329F
:0300000002003EBD
:0C003E00787FE4F6D8FD75810A02008589
:10004A00020131E493A3F8E493A34003F68001F29A
:10005A0008DFF48029E493A3F85407240CC8C333B7
:10006A00C4540F4420C8834004F456800146F6DF86
:10007A00E4800B010204081020408090014EE47EC7
:10008A00019360BCA3FF543F30E509541FFEE4937B
:10009A00A360010ECF54C025E060A840B8E493A342
:1000AA00FAE493A3F8E493A3C8C582C8CAC583CA6D
:1000BA00F0A3C8C582C8CAC583CADFE9DEE780BE25
:0101550000A9
:00000001FF
