:1000C2000808F8FCF4F6F2F3F1F908108FCF4F6F3D
:0400D2002F3F1F9FFE
:1000AD007D6EEF1FAA0670011E4A6008AC051DEC9F
:0400BD0060F080F877
:0100C100221C
:02008F00A907BF
:10009100E4FB74102BF8E6FF74082BF8E65FF5809B
:0B00A100E9FF7E001200AD0BBB08E77A
:0100AC002231
:0700D7007F0512008F80F984
:03000000020003F8
:0C000300787FE4F6D8FD75811702004AF2
:10000F000200D7E493A3F8E493A34003F68001F230
:10001F0008DFF48029E493A3F85407240CC8C333F2
:10002F00C4540F4420C8834004F456800146F6DFC1
:10003F00E4800B01020408102040809000C2E47E8F
:10004F00019360BCA3FF543F30E509541FFEE493B6
:10005F00A360010ECF54C025E060A840B8E493A37D
:10006F00FAE493A3F8E493A3C8C582C8CAC583CAA8
:10007F00F0A3C8C582C8CAC583CADFE9DEE780BE60
:0100D6000029
:00000001FF
