:0A00AF000808080C0406020301090A
:10008F007D6EEF1FAA0670011E4A6008AC051DECBD
:04009F0060F080F895
:0100A300223A
:0B00A400209704C29080F9D29080F5F4
:03000000020003F8
:0C000300787FE4F6D8FD75810F02004AFA
:10000F000200A4E493A3F8E493A34003F68001F263
:10001F0008DFF48029E493A3F85407240CC8C333F2
:10002F00C4540F4420C8834004F456800146F6DFC1
:10003F00E4800B01020408102040809000AFE47EA2
:10004F00019360BCA3FF543F30E509541FFEE493B6
:10005F00A360010ECF54C025E060A840B8E493A37D
:10006F00FAE493A3F8E493A3C8C582C8CAC583CAA8
:10007F00F0A3C8C582C8CAC583CADFE9DEE780BE60
:0100B9000046
:00000001FF
