:100222000E0874313D2020732C74323D202073005F
:10023200111C74333D2020732C746F74616C3D204B
:0302420020200079
:1001EA00E4F582F583AC06AD07D3ED9400EC9400F8
:1001FA0040257A007B05900080E582158270021501
:10020A0083E582458370F2EB1B70011AEB4A70E6B4
:07021A00ED1D70D51C80D220
:0102210022BA
:070283008FA012028AD2B223
:06028A00E47FDC00DFFD53
:01029000224B
:08029100C2B0120283C2B222C6
:08029900D2B0120283C2B222AE
:10026500D2B0C2B212017CFF6013F5A0120285C2A2
:0E027500B212028A740129F9E43AFA80E722F3
:10024600C2B1C2B27F381202917F0C1202917F06B0
:0F0256001202917F011202917F0A7E000201EADB
:10000300E4F52D12024675160075171F7518007555
:10001300193E751A00751B59AE16AF177C007D0A81
:10002300120195EF2430F50BAE16AF177C007D0A55
:10003300120195ED2430F50CAE18AF197C007D0A42
:10004300120195EF2430F512AE18AF197C007D0A2A
:10005300120195ED2430F513AE1AAF1B7C007D0A17
:10006300120195EF2430F51FAE1AAF1B7C007D0AF9
:10007300120195ED2430F520E5172519CFE5163546
:1000830018CF251BFBEF351AFA7C007D64AF03FE06
:10009300120195EF2430F5297C007D64AF03AE0295
:1000A3001201957E007F0ACFCDCFCECCCE12019523
:1000B300EF2430F52AE5172519CFE5163518CF2596
:1000C3001BCF351AFE7C007D0A120195ED2430F515
:1000D3002B7F801202917B007A0079081202657FE0
:0D00E300C01202917A00791C12026580FEA5
:030000000200F00B
:0C00F000787FE4F6D8FD75812D02013701
:10017C00BB010689828A83E0225002E722BBFE0281
:09018C00E32289828A83E49322B4
:10019500BC000BBE0029EF8DF084FFADF022E4CC4E
:1001A500F875F008EF2FFFEE33FEEC33FCEE9DEC17
:1001B500984005FCEE9DFE0FD5F0E9E4CEFD22ED5D
:1001C500F8F5F0EE8420D21CFEADF075F008EF2FA7
:1001D500FFED33FD4007985006D5F0F222C398FD98
:0501E5000FD5F0EA2235
:1000FC00020003E493A3F8E493A34003F68001F217
:10010C0008DFF48029E493A3F85407240CC8C33304
:10011C00C4540F4420C8834004F456800146F6DFD3
:10012C00E4800B0102040810204080900222E47E3F
:10013C00019360BCA3FF543F30E509541FFEE493C8
:10014C00A360010ECF54C025E060A840B8E493A38F
:10015C00FAE493A3F8E493A3C8C582C8CAC583CABA
:10016C00F0A3C8C582C8CAC583CADFE9DEE780BE72
:0102450000B8
:00000001FF
